:100000000C942A000C943C000C943C000C943C0092
:100010000C943C000C943C000C943C000C943C0070
:100020000C943C000C943C000C943C000C943C0060
:100030000C943C000C944B000C943C000C943C0041
:100040000C943C000C943C000C943C000C943C0040
:100050000C943C0011241FBECFE5D8E0DEBFCDBF1D
:1000600010E0A0E6B0E001C01D92A23AB107E1F7AE
:100070000E94A4000C9456010C9400008FE989B9E9
:1000800081E080BD86E880BD80E98AB908955F9BE4
:10009000FECF8CB108951F920F920FB60F921124CC
:1000A0000F931F932F933F934F935F936F937F9380
:1000B0008F939F93AF93BF93EF93FF930E9447005B
:1000C000182F0E944700082F0E9447009FEF95BB02
:1000D00090E0212F30E0200F311D82179307E9F4C3
:1000E00015BA1434D1F4013119F481E085BB15C07F
:1000F000023219F482E085BB10C081E085BB8FE13C
:100100009EE40197F1F700C000008DEF85BB8FE101
:100110009EE40197F1F700C00000FF91EF91BF91BD
:10012000AF919F918F917F916F915F914F913F918F
:100130002F911F910F910F900FBE0F901F90189548
:100140008FEF84BB789408950E94A0000E943E0027
:10015000FFCF2FEF2093610020916100209360007A
:1001600090BD89B986E880BD88E88AB978940895F9
:100170004CB1809161008F3321F48091600088231D
:1001800079F02091610080916000332727FD309540
:100190002F5F3F4F992787FD90952817390759F40E
:1001A000809160008F5F8093600080916000803458
:1001B00011F410926000809161008F3319F4109255
:1001C000610005C0809161008F5F80936100E091C4
:1001D0006100FF27E7FDF095EE59FF4F40838091C6
:1001E00060008F3F11F410926000089580916000CC
:1001F0008F3F11F1E0916000FF27E7FDF095EE5988
:10020000FF4F80812091600090916100291741F497
:100210009FEF90936100909161009093600008952A
:10022000909160009F5F9093600090916000903487
:1002300021F410926000089580E008955D9BFECF48
:100240008CB90895809160008F3FD1F0909160004B
:100250008091610098173CF480916100909160005A
:100260008F5F891B089590916000809161008917CC
:100270004CF480916100909160008F5B891B089520
:1002800080E0089581E00895CF93DF93EC018881A9
:10029000882331F021960E941E0189918823D9F785
:1002A00080E00E941E01DF91CF910895F894FFCF66
:00000001FF
