:100000000C942A000C943C000C943C000C943C0092
:100010000C943C000C943C000C943C000C943C0070
:100020000C943C000C943C000C943C000C943C0060
:100030000C943C000C943C000C943C000C943C0050
:100040000C943C000C943C000C943C000C943C0040
:100050000C943C0011241FBECFE5D8E0DEBFCDBF1D
:1000600010E0A0E6B0E001C01D92A23AB107E1F7AE
:100070000E946C000C942A010C9400008FE989B94D
:1000800081E080BD86E880BD88E08AB908955D9BE7
:10009000FECF8CB908950F931F93182F062F8AEA6D
:1000A0000E944700812F0E944700802F0E94470036
:1000B000802F810F0E9447001F910F910895882380
:1000C00051F090E0EFECF7E03197F1F700C000005D
:1000D0009F5F9817B8F308950E943E0084E461E1A1
:1000E0000E944B0084E60E945F0084E462E20E946A
:1000F0004B0084E60E945F00F1CF2FEF2093610058
:10010000209161002093600090BD89B986E880BD90
:1001100088E88AB9789408954CB1809161008F3352
:1001200021F480916000882379F020916100809112
:100130006000332727FD30952F5F3F4F992787FDBC
:1001400090952817390759F4809160008F5F80934C
:10015000600080916000803411F410926000809102
:1001600061008F3319F41092610005C08091610025
:100170008F5F80936100E0916100FF27E7FDF095BC
:10018000EE59FF4F4083809160008F3F11F4109231
:1001900060000895809160008F3F11F1E091600050
:1001A000FF27E7FDF095EE59FF4F80812091600019
:1001B00090916100291741F49FEF90936100909115
:1001C0006100909360000895909160009F5F90930C
:1001D000600090916000903421F4109260000895C6
:1001E00080E008955D9BFECF8CB9089580916000FA
:1001F0008F3FD1F0909160008091610098173CF49E
:1002000080916100909160008F5F891B08959091AB
:1002100060008091610089174CF480916100909199
:1002200060008F5B891B089580E0089581E0089548
:10023000CF93DF93EC018881882331F021960E94CF
:10024000F20089918823D9F780E00E94F200DF91C3
:08025000CF910895F894FFCF4F
:00000001FF
