S01C00004C434420616E64204D6F746F72656E636F6465722E73726563D1
S11300000C9430000C944D000C944D000C944D0055
S11300100C944D000C944D000C944D000C944D0028
S11300200C944D000C944D000C944D000C944D0018
S11300300C944D000C944D000C944D000C944D0008
S11300400C944D000C944D000C944D000C944D00F8
S11300500C944D006364696E6F70737578585B001F
S113006011241FBECFE5D8E0DEBFCDBF11E0A0E66E
S1130070B0E0E6E6F7E102C005900D92A230B107C8
S1130080D9F721E0A2E0B1E001C01D92AC30B20783
S1130090E1F70E944E030C94B10B0C94000095ED13
S11300A09A95F1F70000882314F4AA9A01C0AA983B
S11300B086FF02C0AB9A01C0AB9885FF02C0AC9A20
S11300C001C0AC9884FF02C0AD9A01C0AD98AE9A4D
S11300D0AE9883FF02C0AA9A01C0AA9882FF02C008
S11300E0AB9A01C0AB9881FF02C0AC9A01C0AC9836
S11300F080FF02C0AD9A01C0AD98AE9AAE98089543
S1130100AF9881E00E944F008FE39FE10197F1F7E0
S113011000C000000895CF93DF93EC01AF9A88816B
S1130120882331F021960E944F0089918111FBCFE1
S1130130DF91CF910895AF9880680E944F00089591
S1130140A79AA69AA29AA39AA49AA59AAF98AE98A7
S11301508FE59AEE0197F1F700C00000AD9AAC9AD2
S1130160AB98AA98AE9AAE988FE19EE40197F1F706
S113017000C00000AE9AAE988FE193E00197F1F7CA
S113018000C00000AE9AAE988FE193E00197F1F7BA
S113019000C00000AD98AC9AAB98AA98AE9AAE98FD
S11301A088E20E944F008CE00E944F000E94800071
S11301B086E00E944F00089590E4699F800D112409
S11301C00E949B00089580E489B983E080BD86E89D
S11301D080BD88E08AB908955D9BFECF8CB90895EF
S11301E0CF93DF93D82FC62F8AEA0E94EC008D2F7D
S11301F00E94EC008C2F0E94EC008D2F8C0F0E942B
S1130200EC00DF91CF9108956F927F928F929F922D
S1130210AF92BF92CF92DF92EF92FF920F931F9310
S1130220CF93DF93FC018B01612C712C9301ABEA1A
S1130230BAEA0E942F04969587959C01220F331FDA
S1130240820F931FD301A81BB90BAA0FBB1FAA0FC0
S1130250BB1FAE0FBF1FCD90DD90ED90FC90D80179
S11302608D909D90AD90BC90D501C4018C259D25A9
S1130270AE25BF25E80188839983AA83BB83CB2E4F
S1130280DD24EE24FF24DFE0CD22DD24EE24FF2450
S113029023E0C20ED11CCC0CDD1CCC0CDD1C9F0158
S11302A02C0D3D1D6D01EE24FF246FE0C622DD24DC
S11302B0EE24FF24C3E0CC0ED11CCC0CDD1CCC0CF2
S11302C0DD1CCE0EDF1EE90188809980AA80BB80E8
S11302D0E601C880D980EA80FB808C0C9D1CAE1C92
S11302E0BF1CC92EDA2EEB2EFF24DFE0CD22DD2445
S11302F0EE24FF2423E0C20ED11CCC0CDD1CCC0C5C
S1130300DD1CCE0EDF1EE601C880D980EA80FB80AA
S11303108C249D24AE24BF248F709927AA27BB2741
S11303200396880F991F880F991FDF01A80FB91F23
S11303308D919D910D90BC91A02D880E991EAA1EA1
S1130340BB1EEA0188819981AA81BB8188269926EE
S1130350AA26BB2688829982AA82BB82E801888168
S1130360998188829982AA82BB82092E000CAA0BE9
S1130370BB0BEA0188839983AA83BB83DFEF6D1AE1
S11303807D0A20E16216710409F050CFE80128814A
S1130390398188839983AA83BB83C901330FAA0B4C
S11303A0BB0BEA0188839983AA83BB83C480D5806D
S11303B0E680F7808C259D25AE25BF25888399830B
S11303C0AA83BB83D8014D915D916D917C91808509
S11303D09185A285B38584279527A627B727E801A9
S11303E088839983AA83BB83DF91CF911F910F9157
S11303F0FF90EF90DF90CF90BF90AF909F908F9041
S11304007F906F9008952F923F924F925F926F92D8
S11304107F928F929F92AF92BF92CF92DF92EF9290
S1130420FF920F931F93CF93DF93CDB7DEB7289737
S11304300FB6F894DEBF0FBECDBF8C016B019A01DD
S1130440A1E7BFE10E942F047A01E81AF90AF694A1
S1130450E794E80EF91EF694E794F694E794F6947C
S1130460E794F694E794F694E79429E32E9DC0016B
S11304702F9D900D11247A01E81AF90A80E4E6EB25
S1130480F0E0D8011C9601900D928A95E1F78CE07A
S1130490E6EFF0E0D80101900D928A95E1F7E114BE
S11304A0F10409F44DC0E0E0F0E040E050E0512CEC
S11304B0412C312C212C712C612C84E090E0852C72
S11304C0942CA32CB22CBA2CA92C982C88249A01F5
S11304D02F5F3F4FD601A40FB51F4C91842AE2161B
S11304E0F30619F4472D562D01C0A901019759F7B8
S11304F09F01ABEABAEA0E942F04969587959C0166
S1130500220F331F820F931FDF01A81BB90BAA0F01
S1130510BB1FAA0FBB1FA00FB11F6D917D918D91C1
S11305209C91139786269726A826B9268D929D928C
S1130530AD92BC9213973196E231F10509F0BDCF2B
S113054019821A821B821C821D821E821F821886B7
S1130550E12CF12CAE014B5F5F4FBE016F5F7F4F0B
S1130560C8010E9404019701ABEABAEA0E942F0471
S1130570969587959C01220F331F820F931FF701D5
S1130580E81BF90BEE0FFF1FEE0FFF1FE00FF11F2B
S113059089819A81AB81BC8180839183A283B38357
S11305A0A7014F5F5F4F9A01ABEABAEA0E942F049A
S11305B0969587959C01220F331F820F931FFA0192
S11305C0E81BF90BEE0FFF1FEE0FFF1FE00FF11FEB
S11305D08D819E81AF81B88580839183A283B3830B
S11305E082E0E80EF11C82E1E816F10409F0B2CFD2
S11305F0E12CF12CAE014B5F5F4FBE016F5F7F4F6B
S1130600C8010E940401F701EF70FF273396EE0F33
S1130610FF1FEE0FFF1FE00FF11F89819A81AB814D
S1130620BC8180839183A283B383F7013196EF70F9
S1130630FF273396EE0FFF1FEE0FFF1FE00FF11F92
S11306408D819E81AF81B88580839183A283B3839A
S113065082E0E80EF11CE11481E0F80659F62896D0
S11306600FB6F894DEBF0FBECDBFDF91CF911F91BF
S11306700F91FF90EF90DF90CF90BF90AF909F903D
S11306808F907F906F905F904F903F902F90089540
S11306902CE4FC0111922A95E9F70895CF93DF9396
S11306A0CDB7DEB7C756D1090FB6F894DEBF0FBE7B
S11306B0CDBF0E94E3000E94A00089E0E6E6F0E0DE
S11306C0DE019C9601900D928A95E1F7FE01F59664
S11306D089E2DF011D928A95E9F760E080E00E94DB
S11306E0DC00CE018C960E948B0048E050E068E963
S11306F070E08CE490E00E94030260E080E00E94DD
S1130700DC0081EA90E00E948B0085E696E6A5E68F
S1130710B4E4A2968CAF9DAFAEAFBFAFA29782E711
S113072095E6A4E6BEE6A6968CAF9DAFAEAFBFAF8E
S1130730A697AE014E595F4FBE01625A7F4F8CE4BB
S113074090E00E94040140E18E010F5F1F4FB80149
S1130750A0968EAD9FADA0970E946A0540E1BE01B0
S11307606E5E7F4FA4968EAD9FADA4970E946A05DE
S1130770BE016E5E7F4FC8010E945F05F8010190C3
S11307800020E9F731977F01E01AF10AA1F14E0147
S1130790BBE18B0E911CC12CD12C00E010E05E015A
S11307A0E6E6AE0EB11C0F2EFCEA6F2EF0E07F2EB3
S11307B0F02DBF92AF927F926F9281E090E08C0F08
S11307C09D1F8C0D9D1D9F938F930E94A505D501A0
S11307D08C91F40181934F010F5F1F4FF2E0CF0E14
S11307E0D11C0F900F900F900F900F900F90CE147C
S11307F0DF04F8F202C000E010E0FE01E00FF11F98
S1130800138E8CE490E00E9448038CE490E00E94F4
S1130810D6046AEA84E40E94F00080EB90E09F939F
S11308208F930E948F050F900F908CA5882391F0D1
S11308307E018BE1E80EF11C8E01035D1F4FD70191
S11308406D917D0184E40E94F000F80181918F0193
S11308508111F5CF6AEA84E40E94F000FFCFA29FE1
S1130860B001B39FC001A39F700D811D1124911D80
S1130870B29F700D811D1124911D08950F931F9334
S1130880CF93DF938230910510F482E090E0E09101
S11308900401F091050120E030E0A0E0B0E03097E1
S11308A019F1408151810281138148175907C8F019
S11308B08417950769F4109731F012960C931297E8
S11308C013961C9327C0009304011093050122C0C2
S11308D02115310519F04217530718F49A01BD0187
S11308E0EF01DF01F801DBCF21153105F9F0281BF9
S11308F0390B2430310580F48A819B81611571059F
S113090021F0FB019383828304C0909305018093BB
S11309100401FE01329644C0FE01E20FF31F8193ED
S1130920919322503109398328833AC020910201DE
S113093030910301232B41F4209162003091630034
S113094030930301209302012091600030916100F3
S11309502115310541F42DB73EB740916400509103
S11309606500241B350BE0910201F0910301E217AD
S1130970F307A0F42E1B3F0B2817390778F0AC01BE
S11309804E5F5F4F2417350748F04E0F5F1F50939B
S11309900301409302018193919302C0E0E0F0E0EF
S11309A0CF01DF91CF911F910F910895CF93DF93E2
S11309B0009709F481C0FC01329713821282A0913E
S11309C00401B0910501109781F420813181820FD7
S11309D0931F20910201309103012817390751F523
S11309E0F0930301E093020167C0ED0120E030E0E1
S11309F0CE17DF0740F44A815B819E014115510502
S1130A00F1F0EA01F5CFD383C28340815181840F91
S1130A10951FC817D90759F488819981840F951FA8
S1130A200296918380838A819B819383828321159B
S1130A30310529F4F0930501E09304013DC0E90177
S1130A40FB83EA8349915991C40FD51FEC17FD0725
S1130A5061F480819181840F951F0296E901998345
S1130A608883828193819B838A83E0E0F0E01296FD
S1130A708D919C911397009719F0FD01DC01F7CF3C
S1130A808D919C9111979D012E5F3F4F820F931F73
S1130A9020910201309103012817390769F4309736
S1130AA029F4109205011092040102C013821282EB
S1130AB0B0930301A0930201DF91CF910895FB014C
S1130AC0DC010D900020E9F7119701900D920020B0
S1130AD0E1F70895BB274A3031F4992322F4BDE2AB
S1130AE0909581959F4F0C947605BB27FB01552764
S1130AF0AA27880F991FAA1FA41710F0A41B839577
S1130B005051B9F7A05DAA3308F0A95DA1930097ED
S1130B1079F7B111B1931192CB010C94760AA0E04C
S1130B20B0E0E5E9F5E00C948A0BAE014B5F5F4F52
S1130B30FA0161917191AF018091080190910901CD
S1130B400E94BE05E2E00C94A60BAEE0B0E0EBEA36
S1130B50F5E00C948A0B85E08C838B899C899A83BD
S1130B608983AE01495E5F4F6D897E89CE0101960E
S1130B700E943B092E96E2E00C94A60BABE0B0E099
S1130B80E4ECF5E00C947A0B6C017B018A01FC0126
S1130B9017821682838181FFCCC1CE0101963C016C
S1130BA0F6019381F70193FD859193FF81917F0174
S1130BB0882309F4BAC1853239F493FD859193FFF2
S1130BC081917F01853229F4B60190E00E94C40A24
S1130BD0E7CF912C212C312CFFE1F315D8F08B3287
S1130BE079F038F4803279F08332A1F4232D206136
S1130BF01DC08D3261F0803369F4232D216016C04D
S1130C00832D8260382EE32DE4603E2E2AC0F32D1E
S1130C10F8601DC037FC2DC020ED280F2A3040F0AD
S1130C208E32B9F436FC81C1232D2064322E19C0D2
S1130C3036FE06C08AE0989E200D1124922E11C023
S1130C40EAE02E9E200D1124222EF32DF0623F2E79
S1130C5008C08C3621F4832D8068382E02C0883673
S1130C6041F4F70193FD859193FF81917F018111F7
S1130C70B3CF982F9F7D9554933028F40C5F1F4F6A
S1130C809FE399830DC0833631F0833771F0833548
S1130C9009F059C021C0F801808189830E5F1F4F7C
S1130CA088248394912C530113C02801F2E04F0E41
S1130CB0511CF801A080B18036FE03C0692D70E09C
S1130CC002C06FEF7FEFC5010E946B0A4C018201E5
S1130CD0F32DFF773F2E16C0280122E0420E511C4F
S1130CE0F801A080B18036FE03C0692D70E002C017
S1130CF06FEF7FEFC5010E94600A4C01F32DF0688D
S1130D003F2E820133FC1BC0822D90E08816990689
S1130D10B0F4B60180E290E00E94C40A2A94F4CFB1
S1130D20F50137FC859137FE81915F01B60190E0B2
S1130D300E94C40A21102A9421E0821A9108811485
S1130D40910471F7E8C0843611F0893641F5F80151
S1130D5037FE07C060817181828193810C5F1F4FD0
S1130D6008C060817181072E000C880B990B0E5FFF
S1130D701F4FF32DFF763F2E97FF09C09095809566
S1130D80709561957F4F8F4F9F4FF0683F2E2AE0FB
S1130D9030E0A3010E94190B882E861845C08537C0
S1130DA031F4232D2F7EB22E2AE030E025C0932D7E
S1130DB0997FB92E8F36C1F018F4883579F0B5C013
S1130DC0803719F0883721F0B0C0E92FE061BE2EDA
S1130DD0B4FE0DC0FB2DF460BF2E09C034FE0AC062
S1130DE0292F2660B22E06C028E030E005C020E19D
S1130DF030E002C020E132E0F801B7FE07C06081B4
S1130E007181828193810C5F1F4F06C06081718163
S1130E1080E090E00E5F1F4FA3010E94190B882E03
S1130E208618FB2DFF773F2E36FE0DC0232D2E7F17
S1130E30A22E891458F434FE0BC032FC09C0832D51
S1130E408E7EA82E05C0B82CA32C03C0B82C01C0DC
S1130E50B92CA4FE0FC0FE01E80DF11D8081803382
S1130E6021F49A2D997EA92E09C0A2FE06C0B3943E
S1130E70B39404C08A2D867809F0B394A3FC11C0FE
S1130E80A0FE06C0B21488F4280C922C9B180EC045
S1130E90B21460F4B60180E290E00E94C40AB394F4
S1130EA0F7CFB21418F42B1802C0982C212CA4FEEE
S1130EB010C0B60180E390E00E94C40AA2FE17C0ED
S1130EC0A1FC03C088E790E002C088E590E0B60189
S1130ED00CC08A2D867859F0A1FE02C08BE201C0B5
S1130EE080E2A7FC8DE2B60190E00E94C40A891456
S1130EF038F4B60180E390E00E94C40A9A94F7CFD4
S1130F008A94F301E80DF11D8081B60190E00E94FE
S1130F10C40A8110F5CF222009F442CEB60180E242
S1130F2090E00E94C40A2A94F6CFF6018681978144
S1130F3002C08FEF9FEF2B96E2E10C94960B20FDFD
S1130F4009C0FC0123FD05C022FF02C07383628334
S1130F5051834083089544FD17C046FD17C0AB017B
S1130F60BC01DA01FB01AA0FBB1FEE1FFF1F109487
S1130F70D1F74A0F5B1F6E1F7F1FCB01BA01660FAB
S1130F80771F881F991F09C033E001C034E0660F42
S1130F90771F881F991F3150D1F7620F711D811D72
S1130FA0911D08950F931F93CF93DF938C01C80174
S1130FB00E94860AEC0197FD08C00E944C0A892B06
S1130FC0B1F7B801CE010E94000BCE01DF91CF91A1
S1130FD01F910F9108958F929F92AF92BF92EF92BB
S1130FE0FF920F931F93CF93DF938C01D62F7A0137
S1130FF0B22E0E94860A9C0133272B32310531F030
S11310002D32310561F48B2D8068B82ED15011F446
S113101080E068C0C8010E94860A97FDF9CFCB2DF5
S1131020CD7F2B2D207309F58033F9F4AA24AA94DB
S1131030AD0E09F443C0C8010E94860A97FD3EC064
S11310409C012F7D33272835310549F4C264D250E1
S1131050A9F1C8010E94860A97FF07C02FC0B6FEF7
S113106002C0C26001C0C261DA2D812C912C5401EE
S113107020ED280F283080F0C4FF04C0B8010E947E
S1131080000B19C02A3040F0C6FFF8CF2F7D3FEE89
S1131090320F363098F727504C2FC501B4010E9407
S11310A0AB074B015C01C260D15059F0C8010E94EA
S11310B0860A97FFDDCFC1FD04C0AACF812C912CF5
S11310C05401C7FF08C0B094A09490948094811CEC
S11310D0911CA11CB11C2C2FB501A401C7010E94B5
S11310E09F0781E0DF91CF911F910F91FF90EF90C7
S11310F0BF90AF909F908F900895A0E2B0E0E3E896
S1131100F8E00C947D0B5C01962E7A01F9018E01B6
S11311100F5F1F4F680180E2D8011D928A95E9F79D
S1131120D50113968C9080E090E0612C712C30E016
S113113061E070E083FC259183FE21918F01522EA2
S1131140211103C080E090E092C02E3511F4009785
S113115051F1432F50E0481759073CF42D3559F10C
S11311602D3219F4772009F103C0772009F46AC0FD
S1131170452D469546954695D601A40FB11D452D9E
S113118047708B0102C0000F111F4A95E2F7A801B6
S11311905C91452B4C93651459F0561410F45394F8
S11311A0E7CF5A94E5CF31E004C07724739401C0AB
S11311B0712C0196BFCF772019F08E8180628E83C7
S11311C0311103C08824839417C0F6019E012F5D5A
S11311D03F4F8081809581932E173F07D1F7F2CF3F
S11311E0E114F10429F0D7018C93F70131967F01C2
S11311F09A94812C9920F9F0C5010E94860A97FDE2
S113120018C0FC01FF2723E0F595E7952A95E1F73F
S1131210EC0DFD1D208130E0AC014770552702C064
S1131220359527954A95E2F720FDDACFB5010E945E
S1131230000B811087CFE114F10411F0D7011C9247
S1131240C80115C0422F469546954695D601A40F70
S1131250B11D422F47708B0102C0000F111F4A9528
S1131260E2F7A8015C91452B4C93622EA2CFA09685
S1131270EFE00C94990BA0E0B0E0E1E4F9E00C9409
S11312807D0B6C01EB015A01FC0117821682512C73
S1131290F601E380FE01E3FC8591E3FE8191182FC2
S11312A0EF01882309F4EEC090E00E944C0A892BD8
S11312B021F0C6010E94D207EBCF153241F4FE01A2
S11312C0E3FC1591E3FE1191EF01153281F4C6019F
S11312D00E94860A97FDD4C0412F50E09C01332719
S11312E024173507A9F2B6010E94000BCBC01A32AD
S11312F039F4E3FC1591E3FE1191EF0101E001C023
S113130000E0F12C20ED210F2A3080F402606F2DD3
S113131070E080E090E040E20E94AB07F62EFE0110
S1131320E3FC1591E3FE1191EF01ECCF01FF03C043
S1131330F11003C0A7C0FF24FA94183619F01C3624
S113134051F010C0FE01E3FC1591E3FE1191EF0191
S1131350183641F408600460FE01E3FC1591E3FED5
S11313601191EF01112309F48DC0612F70E084E520
S113137090E00E94550A892B09F484C000FD07C03F
S1131380F50180809180C50102965C0102C0812C28
S1131390912C1E3651F4F6014681578160E070E0CD
S11313A0202FC4010E949F0773CF1336A9F401FDB7
S11313B002C0FF24F394C6010E94860A97FD60C010
S11313C08114910429F0F4018083C40101964C0135
S11313D0FA94F110F0CF50C01B3559F49E01A401CA
S11313E06F2DC6010E947D08EC01892B09F044C0D1
S11313F03EC0C6010E94D20797FD42C01F3661F16C
S113140028F4143639F1193651F128C0133771F024
S1131410153701F123C08114910429F0F40160828D
S1131420C40101964C01FA94FF2071F0C6010E9498
S1131430860A3C0197FD08C00E944C0A892B59F387
S1131440B601C3010E94000B81149104A9F0F401B8
S1131450108212C0006203C0006101C00064202F2A
S1131460A4016F2DC6010E94EB07811105C0F6018E
S11314708381807329F406C000FD0ACF539408CFFA
S1131480552019F0852D90E002C08FEF9FEFCDB766
S1131490DEB7EFE00C94990B91110C94770B80322A
S11314A019F089508550C8F70895FC010590061677
S11314B021F00020D9F7C00108953197CF01089594
S11314C0FC010590615070400110D8F7809590950B
S11314D08E0F9F1F0895FC01615070400190011010
S11314E0D8F7809590958E0F9F1F0895DC01FC011D
S11314F0672F71917723E1F7329704C07C916D9344
S113150070836291AE17BF07C8F30895CF93DF933A
S1131510EC012B8120FF33C026FF0AC02F7B2B83D5
S11315208E819F8101969F838E838A8190E029C05A
S113153022FF0FC0E881F9818081082E000C990BED
S1131540009719F420622B831AC03196F983E8833B
S11315500EC0EA85FB85099597FF09C02B8101968A
S113156011F080E201C080E1822B8B8308C02E81C0
S11315703F812F5F3F4F3F832E83992702C08FEF18
S11315809FEFDF91CF9108950F931F93CF93DF9334
S1131590FB01238121FD03C08FEF9FEF2CC022FFAD
S11315A016C046815781248135814217530744F47C
S11315B0A081B1819D012F5F3F4F318320838C93A4
S11315C0268137812F5F3F4F3783268314C08B01D9
S11315D0EC01FB010084F185E02D0995892BE1F6EE
S11315E0D80116968D919C911797019617969C9306
S11315F08E931697CE01DF91CF911F910F9108958D
S1131600FB01238120FF12C026FD10C08F3F3FEF56
S1131610930761F082832F7D2064238326813781A1
S11316202150310937832683992708958FEF9FEF3F
S11316300895FA01AA27283051F1203181F1E89464
S11316406F936E7F6E5F7F4F8F4F9F4FAF4FB1E0B1
S11316503ED0B4E03CD0670F781F891F9A1FA11DAC
S1131660680F791F8A1F911DA11D6A0F711D811DAD
S1131670911DA11D20D009F468943F912AE0269F72
S113168011243019305D3193DEF6CF010895462FD1
S11316904770405D4193B3E00FD0C9F7F6CF462FB2
S11316A04F70405D4A3318F0495D31FD405241931B
S11316B002D0A9F7EACFB4E0A695979587957795D8
S11316C06795BA95C9F700976105710508959B015F
S11316D0AC010A2E06945795479537952795BA95E8
S11316E0C9F7620F731F841F951FA01D08959927C2
S11316F0882708952F923F924F925F926F927F9224
S11317008F929F92AF92BF92CF92DF92EF92FF920D
S11317100F931F93CF93DF93CDB7DEB7CA1BDB0BB9
S11317200FB6F894DEBF0FBECDBF09942A8839885E
S113173048885F846E847D848C849B84AA84B98465
S1131740C884DF80EE80FD800C811B81AA81B98171
S1131750CE0FD11D0FB6F894DEBF0FBECDBFED0185
S10917600895F894FFCF88
S113176600000C012000446566656E646572000025
S1131776000000000000000000000000000000005F
S1131786000000000000000000000000000000004F
S1131796000000000000000050617373776F7264EC
S11317A600496E697469617465642E002532780097
S11317B6736466646600A60B31D1ACB5DF98DB7240
S11317C6FD2FB7DF1AD0EDAFE1B8967E266A4590B5
S11317D67CBA997F2CF14799A124F76C91B3E2F274
S11317E6010816FC8E85D8206963694E5771A3FEDD
S11317F658A47E3D93F4886A3F24D308A3852E8A91
S10518061913B0
S9030000FC
