S01C00004C434420616E64204D6F746F72656E636F6465722E73726563D1
S11300000C942A000C9447000C9447000C9447006D
S11300100C9447000C9447000C9447000C94470040
S11300200C9447000C9447000C9447000C94470030
S11300300C9447000C9447000C9447000C94470020
S11300400C9447000C9447000C9447000C94470010
S11300500C94470011241FBECFE5D8E0DEBFCDBF0E
S113006015E0A0E6B0E0E0E5FBE002C005900D92EB
S1130070A232B107D9F725E0A2E2B5E001C01D9292
S1130080AC32B207E1F70E94A2030C94A6050C94CB
S1130090000095ED9A95F1F70000882314F4AA9ACC
S11300A001C0AA9886FF02C0AB9A01C0AB9885FF35
S11300B002C0AC9A01C0AC9884FF02C0AD9A01C0E2
S11300C0AD98AE9AAE9883FF02C0AA9A01C0AA98CE
S11300D082FF02C0AB9A01C0AB9881FF02C0AC9A08
S11300E001C0AC9880FF02C0AD9A01C0AD98AE9A31
S11300F0AE980895AF9881E00E9449008FE39FE194
S11301000197F1F700C000000895CF93DF93EC014D
S1130110AF9A8881882331F021960E944900899101
S11301208111FBCFDF91CF910895AF9880680E9431
S113013049000895A79AA69AA29AA39AA49AA59A5E
S1130140AF98AE988FE59AEE0197F1F700C00000E2
S1130150AD9AAC9AAB98AA98AE9AAE988FE19EE409
S11301600197F1F700C00000AE9AAE988FE193E0DA
S11301700197F1F700C00000AE9AAE988FE193E0CA
S11301800197F1F700C00000AD98AC9AAB98AA981B
S1130190AE9AAE9888E20E9449008CE00E94490021
S11301A00E947A0086E00E944900089590E4699FC5
S11301B0800D11240E949500089580E489B983E09C
S11301C080BD86E880BD88E08AB908955D9BFECF36
S11301D08CB90895CF93DF93D82FC62F8AEA0E9453
S11301E0E6008D2F0E94E6008C2F0E94E6008D2FE2
S11301F08C0F0E94E600DF91CF9108954F925F9299
S11302006F927F928F929F92AF92BF92CF92DF9222
S1130210EF92FF920F931F93CF93DF93FB01DA01C9
S11302203C012C0120E4420E511CE301C990D990F9
S1130230E990F9903E0100811181228133810C25DE
S11302401D252E253F250083118322833383C22E4F
S1130250D12CD394CC0CDD1CCC0CDD1CBC016C0D5E
S11302607D1DC32EDD24EE24FF24D394CC0CDD1C91
S1130270CC0CDD1C7C01EC0CFD1CEB01888099800E
S1130280AA80BB80E701C880D980EA80FB80C80CC3
S1130290D91CEA1CFB1C812E912CB4017395660FAA
S11302A0771F660F771F680F791FEB01888099808D
S11302B0AA80BB80C824D924EA24FB24112722273E
S11302C033271395000F111F000F111F080F191F5B
S11302D0E801088119812A813B81C00ED11EE21EEA
S11302E0F31E0D911D912D913C911397C026D1269B
S11302F0E226F326CD92DD92ED92FC9213970081D3
S11303001181C082D182E282F382012E000C220B81
S1130310330B0D931D932D933C9313976414750421
S113032009F083CF40815181008311832283338379
S1130330052E000C660B770B4D935D936D937C93A8
S11303401397EC01C05CDF4F088119812A813B813E
S113035040275127622773274D935D936D937C93B8
S11303601397DC01AC5BBF4F408151816281738183
S11303708D919D910D90BC91A02D84279527A62742
S1130380B72780839183A283B383DF91CF911F9199
S11303900F91FF90EF90DF90CF90BF90AF909F9020
S11303A08F907F906F905F904F9008954F925F92DF
S11303B06F927F928F929F92AF92BF92CF92DF9271
S11303C0EF92FF920F931F93CF93DF93FB01DA0118
S11303D03C0128E4620E711C2C0148E0440E511CBF
S11303E0C080D180E280F380E3013A912A911A918E
S11303F00A913E010C251D252E253F2500831183DE
S113040022833383C22ED12CD394CC0CDD1CCC0C90
S1130410DD1CBC016C0D7D1DC32EDD24EE24FF24E8
S1130420D394CC0CDD1CCC0CDD1C7C01EC0CFD1C31
S1130430EB0188809980AA80BB80E701C880D980BD
S1130440EA80FB80C80CD91CEA1CFB1C812E912C71
S1130450B4017395660F771F660F771F680F791FB6
S1130460EB0188809980AA80BB80C824D924EA241F
S1130470FB241127222733271395000F111F000F88
S1130480111F080F191FE801088119812A813B8176
S1130490C00ED11EE21EF31E0D911D912D913C91B3
S11304A01397C026D126E226F326CD92DD92ED9253
S11304B0FC92139700811181C082D182E282F3827F
S11304C0012E000C220B330B0D931D932D933C93A3
S11304D013976414750409F083CF4081518100831C
S11304E0118322833383052E000C660B770B4D9307
S11304F05D936D937C931397EC010C811D812E8188
S11305003F8140275127622773274D935D936D9355
S11305107C93139740815181628173818881998191
S1130520AA81BB8184279527A627B7278083918337
S1130530A283B383DF91CF911F910F91FF90EF902E
S1130540DF90CF90BF90AF909F908F907F906F90EF
S11305505F904F9008952F923F924F925F926F92C7
S11305607F928F929F92AF92BF92CF92DF92EF923F
S1130570FF920F931F93CF93DF93CDB7DEB72897E6
S11305800FB6F894DEBF0FBECDBF7C018B019A017C
S1130590A1E7BFE10E944604281B390B3695279535
S11305A0820F931F96958795929582958F708927D0
S11305B09F70892769E3689F9001699F300D11241A
S11305C0CA01821B930BD701BC5F20E034E0E9ED44
S11305D0F0E001900D9221503040D9F728E4E9ED84
S11305E0F4E0D70101900D922A95E1F70097C1F14B
S11305F0F701170128E4220E311C20E030E0412CE1
S1130600512C612C712CC12CD12C44E050E0842C51
S1130610952CA62CB72CBA2CA92C982C8824B9017B
S11306206F5F7F4FD801A20FB31F2C91822A8617C8
S1130630970719F42C2D3D2D01C09B014150510900
S113064051F7408151816281738184269526A626C3
S1130650B72681929192A192B1922E163F06A9F6E5
S113066019821A821B821C821D821E821F82188696
S11306708701670188E4C80ED11CAE014B5F5F4F50
S1130680BE016F5F7F4FC7010E94FE0089819A817E
S1130690AB81BC81F80180839183A283B3838D8174
S11306A09E81AF81B88584839583A683B783085FD1
S11306B01F4FC016D10609F787011C5F5701F8EFD9
S11306C0BF1AAE014B5F5F4FBE016F5F7F4FC70123
S11306D00E94FE0089819A81AB81BC81F8018083EC
S11306E09183A283B3838D819E81AF81B8858483F6
S11306F09583A683B783085F1F4F0A151B0509F767
S113070028960FB6F894DEBF0FBECDBFDF91CF9110
S11307101F910F91FF90EF90DF90CF90BF90AF901B
S11307209F908F907F906F905F904F903F902F900D
S1130730089520E038E0FC01A90111924150504095
S1130740E1F70895CF93DF93CDB7DEB7CC56D10947
S11307500FB6F894DEBF0FBECDBF0E94DD000E942D
S11307609A008AE0E6E6F0E0DE01119601900D922F
S11307708A95E1F7FE013B9688E2DF011D928A9596
S1130780E9F760E080E00E94D600CE0101960E9465
S1130790850080E098E00E9455048C010097D1F414
S11307A08CE0E8E9F0E0DE01DB9601900D928A9599
S11307B0E1F7FE01E95BFF4F86E2DF011D928A95B6
S11307C0E9F760E080E00E94D600CE01CB960E945B
S11307D08500FFCF48E050E06AEC70E00E94AB0275
S11307E085E696E6A5E6B4E48BAB9CABADABBEABBD
S11307F082E795E6A4E6BEE68FAB98AFA9AFBAAFA1
S1130800AE01495C5F4FBE016D5C7F4FC8010E9421
S1130810FE00AE01495C5F4FBE016D5C7F4FC801B5
S11308200E94D60183ED90E00E947605C8010E94E3
S11308309903C8010E94ED046AEA84E40E94EA0074
S11308406AEA84E40E94EA006AEA84E40E94EA0014
S113085069816623B1F08E010F5F1F4F84E40E940B
S1130860EA007801F80161918F0184E40E94EA00B2
S1130870D7016C9184E40E94EA00F801608161115F
S1130880EDCF6AEA84E40E94EA00FFCFA29FB001A0
S1130890B39FC001A39F700D811D1124911DB29FB0
S11308A0700D811D1124911D08950F931F93CF93F3
S11308B0DF938230910510F482E090E0E09124050A
S11308C0F091250520E030E0A0E0B0E0309719F188
S11308D0408151810281138148175907C8F0841758
S11308E0950769F4109731F012960C9312971396AA
S11308F01C9327C0009324051093250522C02115BD
S1130900310519F04217530718F49A01BD01EF019C
S1130910DF01F801DBCF21153105F9F0281B390B74
S11309202430310580F48A819B816115710521F0A1
S1130930FB019383828304C090932505809324054F
S1130940FE01329644C0FE01E20FF31F819391939E
S113095022503109398328833AC0209122053091ED
S11309602305232B41F420916200309163003093DE
S11309702305209322052091600030916100211508
S1130980310541F42DB73EB74091640050916500A4
S1130990241B350BE0912205F0912305E217F307A0
S11309A0A0F42E1B3F0B2817390778F0AC014E5FDB
S11309B05F4F2417350748F04E0F5F1F50932305F0
S11309C0409322058193919302C0E0E0F0E0CF01CF
S11309D0DF91CF911F910F910895CF93DF930097EB
S11309E009F481C0FC01329713821282A09124057C
S11309F0B0912505109781F420813181820F931FD6
S1130A0020912205309123052817390751F5F093D9
S1130A102305E093220567C0ED0120E030E0CE1706
S1130A20DF0740F44A815B819E0141155105F1F0D5
S1130A30EA01F5CFD383C28340815181840F951F8E
S1130A40C817D90759F488819981840F951F029694
S1130A50918380838A819B819383828321153105CD
S1130A6029F4F0932505E09324053DC0E901FB83B7
S1130A70EA8349915991C40FD51FEC17FD0761F41E
S1130A8080819181840F951F0296E901998388835F
S1130A90828193819B838A83E0E0F0E012968D91BA
S1130AA09C911397009719F0FD01DC01F7CF8D910C
S1130AB09C9111979D012E5F3F4F820F931F2091B0
S1130AC02205309123052817390769F4309729F452
S1130AD0109225051092240502C013821282B0934D
S1130AE02305A0932205DF91CF9108950F931F93BF
S1130AF0CF93DF93E0912805F0912905238121FF0D
S1130B001BC08C01D0E0C0E0F80181918F0160919D
S1130B10280570912905DB011896ED91FC91199730
S1130B20882331F00995892B79F3DFEFCFEFECCFF0
S1130B308AE00995892B19F08FEF9FEF02C08D2F62
S1130B409C2FDF91CF911F910F910895F894FFCFBF
S1130B5000002C05200044656673656E64657200B0
S1130B600000000000000000000000000000000081
S1130B700000000000000000000000000000000071
S1130B80000000000000000054727920616E6F7450
S1130B906865720000000000000000000000000012
S1130BA00000000000000000000000000000000041
S1130BB00000000000000000000050617373776FB4
S1130BC0726400446F6E652100A60B31D1ACB5DFB1
S1130BD098DB72FD2FB7DF1AD0EDAFE1B8967E2611
S1130BE06A45907CBA997F2CF14799A124F76C91BE
S1130BF0B3E2F2010816FC8E85D8206963694E576A
S1130C0071A3FE58A47E3D93F48F74950D58B68E4F
S1130C107258CD8B71EE4A15821DA4547BB5595A76
S1130C20C239D5309C1360F22A23B0D1C5F0856057
S1130C3028187941CAEF38DBB8B0DC798E0E183A3F
S1130C40608B0E9E6C3E8A1EB0C17715D7274B3140
S1130C50BDDA2FAF78605C6055F32555E694AB554B
S1130C60AA629848574014E8636A39CA55B610AB6B
S1130C702A345CCCB4CEE84111AF8654A193E97216
S1130C807C1114EEB32ABC6F635DC5A92BF6311831
S1130C9074163E5CCE1E93879B33BAD6AF5CCF24CA
S1130CA06C8153327A7786952898488F3BAFB94B3D
S1130CB06B1BE8BFC493212866CC09D86191A92194
S1130CC0FB60AC7C483280EC5D5D5D84EFB1758582
S1130CD0E9022326DC881B65EB813E8923C5AC969B
S1130CE0D3F36F6D0F3942F48382440B2E042084B6
S1130CF0A44AF0C8695E9B1F9E4268C6219A6CE9AB
S1130D00F6619C0C67F088D3ABD2A0516A682F546B
S1130D10D828A70F96A33351AB6C0BEF6EE43B7A44
S1130D201350F03BBA982AFB7E1D65F1A17601AF02
S1130D30393E59CA66880E43821986EE8CB49F6F79
S1130D4045C3A5847DBE5E8B3BD8756FE07320C11F
S1130D50859F441A40A66AC15662AAD34E06773FBD
S1130D603672DFFE1B3D029B4224D7D03748120A5D
S1130D70D0D3EA0FDB9BC0F149C97253077B1B999F
S1130D8080D879D425F7DEE8F61A50FEE33B4C7997
S1130D90B6BDE06C97BA06C004B64FA9C1C4609F43
S1130DA040C29E5C5E63246A19AF6FFB68B5536CE6
S1130DB03EEBB239136FEC523B1F51FC6D2C953056
S1130DC09B444581CC09BD5EAF04D0E3BEFD4A33EC
S1130DD0DE07280F66B34B2E1957A8CBC00F74C873
S1130DE045395F0BD2DBFBD3B9BDC079550A3260FC
S1130DF01AC600A1D679722C40FE259F67CCA31F8A
S1130E00FBF8E9A58EF82232DBDF16753C156B6121
S1130E10FDC81E502FAB5205ADFAB53D3260872395
S1130E20FD487B315382DF003EBB575C9EA08C6F34
S1130E30CA2E56871ADB6917DFF6A842D5C3FF7E90
S1130E4028C63267AC73554F8CB0275B69C858CA43
S1130E50BB5DA3FFE1A011F0B8983DFA10B883215F
S1130E60FD6CB5FC4A5BD3D12D79E4539A6545F802
S1130E70B6BC498ED29097FB4BDAF2DDE1337ECBE0
S1130E80A44113FB62E8C6E4CEDACA20EF014C7732
S1130E9036FE9E7ED0B41FF12B4DDADB95989190EF
S1130EA0AE718EADEAA0D5936BD0D18ED0E025C7BC
S1130EB0AF2F5B3C8EB794758EFBE2F68F642B12DA
S1130EC0F212B888881CF00D90A05EAD4F1CC38F41
S1130ED06891F1CFD1ADC1A8B318222F2F77170E87
S1130EE0BEFE2D75EAA11F028B0FCCA0E5E8746F3E
S1130EF0B5D6F3AC1899E289CEE04FA8B4B7E013A5
S1130F00FD813BC47CD9A8ADD266A25F1605779556
S1130F10801473CC9377141A216520ADE686FAB554
S1130F2077F54254C7CF359DFB0CAFCDEBA0893E7E
S1130F307BD31B41D6497E1EAE2D0E25005EB371B8
S1130F4020BB006822AFE0B8579B3664241EB90961
S1130F50F01D916355AAA6DF598943C1787F535A7E
S1130F60D9A25B7D20C5B9E50276032683A9CF9576
S1130F70626819C811414A734ECA2D47B34AA9146D
S1130F807B5200511B1529539A3F570FD6E4C69B39
S1130F90BC76A4602B0074E681B56FBA081FE91B08
S1130FA0576BEC96F215D90D2A216563B6B6F9B9DB
S1130FB0E72E0534FF645685C55D2DB053A18F9F80
S1130FC0A99947BA086A07856E886A3F24D308A39B
S1130FD0852E8A191344737003223809A4D0319FD3
S1130FE02998FA2E08896C4EECE62128457713D00F
S1130FF038CF6654BE6C0CE934B729ACC0DD507CE4
S1131000C9B5D5843F170947B5D9D516921BFB79C5
S1051010890051
S9030000FC
