:100000000C942A000C943C000C943C000C943C0092
:100010000C943C000C943C000C943C000C943C0070
:100020000C943C000C943C000C943C000C943C0060
:100030000C943C000C94DF000C943C000C943C00AD
:100040000C943C000C943C000C943C000C943C0040
:100050000C943C0011241FBECFE5D8E0DEBFCDBF1D
:1000600020E0A0E6B0E001C01D92A539B207E1F79B
:100070000E9456010C945D010C94000095ED9A9538
:10008000F1F70000882314F4AA9A01C0AA9886FF09
:1000900002C0AB9A01C0AB9885FF02C0AC9A01C008
:1000A000AC9884FF02C0AD9A01C0AD98AE9AAE98EC
:1000B00083FF02C0AA9A01C0AA9882FF02C0AB9A2D
:1000C00001C0AB9881FF02C0AC9A01C0AC9880FF20
:1000D00002C0AD9A01C0AD98AE9AAE980895AF989F
:1000E00081E00E943E008FE39FE10197F1F700C09D
:1000F00000000895CF93DF93EC01AF9A88818823A5
:1001000031F021960E943E0089918111FBCFDF9151
:10011000CF910895AF9880680E943E000895A79AF5
:10012000A69AA29AA39AA49AA59AAF98AE988FE598
:100130009AEE0197F1F700C00000AD9AAC9AAB9827
:10014000AA98AE9AAE988FE19EE40197F1F700C0AD
:100150000000AE9AAE988FE193E00197F1F700C0EE
:100160000000AE9AAE988FE193E00197F1F700C0DE
:100170000000AD98AC9AAB98AA98AE9AAE9888E277
:100180000E943E008CE00E943E000E946F0086E0CC
:100190000E943E00089590E4699F800D11240E9402
:1001A0008A00089580E489B983E080BD86E880BD37
:1001B00080E98AB908955F9BFECF8CB108951F92A4
:1001C0000F920FB60F9211242F933F934F935F938B
:1001D0006F937F938F939F93AF93BF93CF93DF934F
:1001E000EF93FF930E94DB00C82F0E94DB00D82F03
:1001F0000E94DB0090E02D2F30E02C0F311D821784
:100200009307E9F5C434D9F5DA3A01F58091620033
:10021000811109C081E088BB1092610010926000DA
:10022000809362002CC018BA10926200E0916000C6
:10023000F0916100ED59FF4F108260E080E00E9474
:10024000CB0083E690E00E947A0019C080916000A4
:1002500090916100FC01ED59FF4FD083019690937E
:10026000610080936000FC01ED59FF4F108260E057
:1002700080E00E94CB0083E690E00E947A00FF912C
:10028000EF91DF91CF91BF91AF919F918F917F912E
:100290006F915F914F913F912F910F900FBE0F90F3
:1002A0001F9018958FEF87BB789408950E94D20015
:0E02B0000E948F000E945201FFCFF894FFCFF2
:00000001FF
