S01100006B6579626F617264322E7372656390
S11300000C942A000C943C000C943C000C943C008E
S11300100C943C000C943C000C943C000C943C006C
S11300200C943C000C943C000C943C000C943C005C
S11300300C943C000C944B000C943C000C943C003D
S11300400C943C000C943C000C943C000C943C003C
S11300500C943C0011241FBECFE5D8E0DEBFCDBF19
S113006020E0A0E6B0E001C01D92A036B207E1F79F
S11300700E9474000C9479000C94000080E489B907
S113008083E080BD86E880BD80E98AB908955F9BDE
S1130090FECF8CB108951F920F920FB60F921124C8
S11300A02F933F934F935F936F937F938F939F937C
S11300B0AF93BF93EF93FF930E94470087BBFF91D9
S11300C0EF91BF91AF919F918F917F916F915F91CC
S11300D04F913F912F910F900FBE0F901F90189545
S11300E08FEF87BB789408950E943E000E947000B1
S10900F0FFCFF894FFCFDE
S9030000FC
