S01700004763634170706C69636174696F6E312E737265635B
S11300000C942A000C9434000C9434000C943400A6
S11300100C9434000C9434000C9434000C9434008C
S11300200C9434000C9434000C9434000C9434007C
S11300300C9434000C9434000C9434000C9434006C
S11300400C9434000C9434000C9434000C9434005C
S11300500C94340011241FBECFE5D8E0DEBFCDBF21
S11300600E9474000C94CF000C94000088EF8ABBAB
S113007087E08BBB00000000089587E88ABB88E70F
S11300808BBB000000000895CF930E943600C89BEC
S113009009C0C99B09C0C9B3C2FBCC27C0F981E020
S11300A0C82703C0C3E001C0C2E00E943D00CB9951
S11300B004C080EF82BBC75F09C0CC9902C0C85F8F
S11300C005C0CD9902C0CD5F01C089B32FEF80E791
S11300D092E0215080409040E1F700C000000E946F
S11300E036008C2FCF9108950E9436008FEF84BB89
S11300F081BB15BA12BA0F2EFBE09F2EF02D0F2EE6
S1130100FAE0AF2EF02D0F2EF9E0BF2EF02D6894FB
S1130110CC24C3F80F2EF7E0DF2EF02D0F2EF6E0DF
S1130120EF2EF02D0F2EF5E0FF2EF02D04E013E05E
S1130130D2E0C1E089B38730E9F30E944400813002
S113014011F4C5BB08C0823011F4D5BB08C083309C
S113015011F415BB08C0843011F405BB08C0853008
S113016011F4F5BA08C0863011F4E5BA08C0873036
S113017011F4D5BA08C0883011F4C5BA08C0893062
S113018011F4B5BA08C08A3011F4A5BAD3CF8B30B4
S113019011F495BACFCF8C3069F685BBC7CFF894EC
S10501A0FFCF8B
S9030000FC
