:100000000C945C000C9479000C9479000C947900A9
:100010000C9479000C9479000C9479000C9479007C
:100020000C9479000C9479000C9479000C9479006C
:100030000C9479000C9479000C9479000C9479005C
:100040000C9479000C9479000C9479000C9479004C
:100050000C9479000C9479000C9479000C9479003C
:100060000C9479000C947900000000002400270013
:100070002A0000000000250028002B0004040404CE
:100080000404040402020202020203030303030342
:10009000010204081020408001020408102001021F
:1000A00004081020000000080002010000030407FB
:1000B000000000000000000011241FBECFEFD8E0B8
:1000C000DEBFCDBF11E0A0E0B1E0EEE4F4E002C09D
:1000D00005900D92A833B107D9F721E0A8E3B1E06C
:1000E00001C01D92AC36B207E1F70E948F010C945B
:1000F00025020C940000E1EBF0E09491EDE9F0E0D2
:100100002491E9E8F0E0E491EE2309F43CC099235E
:1001100039F1933091F038F49130A9F0923001F533
:1001200094B59F7D12C0973091F09830A1F0943033
:10013000B9F4909180009F7D03C0909180009F77DB
:10014000909380000DC094B59F7794BD09C09091A5
:10015000B0009F7703C09091B0009F7D9093B00056
:10016000F0E0EE0FFF1FEE58FF4FA591B4919FB73F
:10017000F894811104C08C912095282302C0EC9141
:100180002E2B2C939FBF089595ED9A95F1F70000C3
:1001900087FF02C0429A01C0429886FF02C0439A7C
:1001A00001C0439885FF02C0449A01C0449884FF6F
:1001B00002C0459A01C04598409A409883FF02C00A
:1001C000429A01C0429882FF02C0439A01C04398FC
:1001D00081FF02C0449A01C0449880FF02C0459A42
:1001E00001C04598409A40980895419880E80C9441
:1001F000C400CF93DF93419AEC018991882319F0D1
:100200000E94C400FACFDF91CF910895419881E018
:100210000E94C4008FE39FE10197F1F700C0000046
:1002200008951F920F920FB60F9211241F932F93D0
:100230003F934F935F936F937F938F939F93AF936E
:10024000BF93CF93DF93EF93FF9381E00E947B00F6
:100250008091C00087FFFCCF1091C6008091C00044
:1002600087FFFCCFD091C6008091C00087FFFCCFF4
:10027000C091C6000E9406010E94F50082E391E051
:100280000E94F9008AE0EFE9FFE03197F1F700C042
:1002900000008150C1F72C2F30E08D2F90E0810FAE
:1002A000911D28173907C9F41434B9F480916A01F3
:1002B00090916B01FC01E85CFE4FD0830196909316
:1002C0006B0180936A01FC01E85CFE4F10820E9482
:1002D000F50088E391E00E94F900F89480E493E04F
:1002E0009093C5008093C40088E98093C10086E0A4
:1002F0008093C2007894FF91EF91DF91CF91BF91ED
:10030000AF919F918F917F916F915F914F913F91AD
:100310002F911F910F900FBE0F901F901895CF93A4
:10032000DF93CDB7DEB7E2970FB6F894DEBF0FBE0E
:10033000CDBF399A389A3A9A3B9A3C9A3D9A41985D
:1003400040988FE59AEE0197F1F700C00000459ABA
:10035000449A43984298409A4098AFE1BEE411977E
:10036000F1F700C00000409A4098EFE1F3E03197C8
:10037000F1F700C00000409A40988FE193E00197A8
:10038000F1F700C000004598449A43984298409A7B
:10039000409888E20E94C4008CE00E94C4000E9441
:1003A000060186E00E94C400F89480E493E09093F4
:1003B000C5008093C40088E98093C10086E08093E3
:1003C000C20078948AE0E0E0F1E0DE01119601904D
:1003D0000D928A95E1F7FE013B9688E2DF011D92BE
:1003E0008A95E9F70E94F500CE0101960E94F90076
:1003F000EDE9F0E02491E9E8F0E08491882399F0B8
:1004000090E0880F991FFC01E859FF4FA591B49126
:10041000FC01EE58FF4F859194918FB7F894EC91C1
:10042000E22BEC938FBF80E00E947B0084E6EFE933
:10043000FFE03197F1F700C000008150C1F70E9442
:0E044000060189818F33F1F7FFCFF894FFCFCB
:10044E00446566656E6465723F0000000000000042
:10045E00000000000000000000000000000000008E
:10046E00000000000000000000000000000000007E
:08047E000000646F6E650000D0
:00000001FF
