S01C00004C434420616E64204D6F746F72656E636F6465722E73726563D1
S11300000C942A000C943F000C943F000C943F0085
S11300100C943F000C943F000C943F000C943F0060
S11300200C943F000C943F000C943F000C943F0050
S11300300C943F000C943F000C943F000C943F0040
S11300400C943F000C943F000C943F000C943F0030
S11300500C943F0011241FBECFE5D8E0DEBFCDBF16
S113006010E0A0E6B0E0E6E9F2E002C005900D92EF
S1130070A239B107D9F70E9403010C9449010C94E9
S1130080000095ED9A95F1F70000882314F4AA9ADC
S113009001C0AA9886FF02C0AB9A01C0AB9885FF45
S11300A002C0AC9A01C0AC9884FF02C0AD9A01C0F2
S11300B0AD98AE9AAE9883FF02C0AA9A01C0AA98DE
S11300C082FF02C0AB9A01C0AB9881FF02C0AC9A18
S11300D001C0AC9880FF02C0AD9A01C0AD98AE9A41
S11300E0AE980895AF9881E00E9441008FE39FE1AC
S11300F00197F1F700C000000895CF93DF93EC015E
S1130100AF9A8881882331F021960E944100899119
S11301108111FBCFDF91CF910895AF9880680E9441
S113012041000895A79AA69AA29AA39AA49AA59A76
S1130130AF98AE988FE59AEE0197F1F700C00000F2
S1130140AD9AAC9AAB98AA98AE9AAE988FE19EE419
S11301500197F1F700C00000AE9AAE988FE193E0EA
S11301600197F1F700C00000AE9AAE988FE193E0DA
S11301700197F1F700C00000AD98AC9AAB98AA982B
S1130180AE9AAE9888E20E9441008CE00E94410041
S11301900E94720086E00E944100089590E4699FE5
S11301A0800D11240E948D00089587E389B981E0B0
S11301B080BD86E880BD88E08AB908955D9BFECF46
S11301C08CB90895CF93DF93D82FC62F8AEA0E9463
S11301D0DE008D2F0E94DE008C2F0E94DE008D2F0A
S11301E08C0F0E94DE00DF91CF910895882351F097
S11301F090E0EBEDF5E03197F1F700C000009F5F70
S11302008913F7CF0895CF93DF93CDB7DEB7E29785
S11302100FB6F894DEBF0FBECDBF0E94D5000E947A
S113022092008BE0E0E6F0E0DE01119601900D9281
S11302308A95E1F7FE013C9687E2DF011D928A95DB
S1130240E9F760E080E00E94CE00CE0101960E94B2
S11302507D006AEA84E40E94E20084E60E94F600DB
S113026069816F3371F08E010E5F1F4F84E40E9429
S1130270E20084E60E94F600F80161918F016F3379
S1130280A9F76AEA84E40E94E20084E60E94F60088
S1090290FFCFF894FFCF3C
S113029648616D737472696E673F00000000000068
S11302A60000000000000000000000000000000044
S11302B60000000000000000000000000000000034
S10502C6000032
S9030000FC
