S01C00004C434420616E64204D6F746F72656E636F6465722E73726563D1
S11300000C9430000C944D000C944D000C944D0055
S11300100C944D000C944D000C944D000C944D0028
S11300200C944D000C944D000C944D000C944D0018
S11300300C944D000C944D000C944D000C944D0008
S11300400C944D000C944D000C944D000C944D00F8
S11300500C944D006364696E6F70737578585B001F
S113006011241FBECFE5D8E0DEBFCDBF14E0A0E66B
S1130070B0E0E6E8F2E102C005900D92AE3EB107B1
S1130080D9F724E0AEEEB4E001C01D92A23FB2075E
S1130090E1F70E9494030C9441090C94000095ED3F
S11300A09A95F1F70000882314F4AA9A01C0AA983B
S11300B086FF02C0AB9A01C0AB9885FF02C0AC9A20
S11300C001C0AC9884FF02C0AD9A01C0AD98AE9A4D
S11300D0AE9883FF02C0AA9A01C0AA9882FF02C008
S11300E0AB9A01C0AB9881FF02C0AC9A01C0AC9836
S11300F080FF02C0AD9A01C0AD98AE9AAE98089543
S1130100AF9881E00E944F008FE39FE10197F1F7E0
S113011000C000000895CF93DF93EC01AF9A88816B
S1130120882331F021960E944F0089918111FBCFE1
S1130130DF91CF910895AF9880680E944F00089591
S1130140A79AA69AA29AA39AA49AA59AAF98AE98A7
S11301508FE59AEE0197F1F700C00000AD9AAC9AD2
S1130160AB98AA98AE9AAE988FE19EE40197F1F706
S113017000C00000AE9AAE988FE193E00197F1F7CA
S113018000C00000AE9AAE988FE193E00197F1F7BA
S113019000C00000AD98AC9AAB98AA98AE9AAE98FD
S11301A088E20E944F008CE00E944F000E94800071
S11301B086E00E944F00089590E4699F800D112409
S11301C00E949B0008954F925F926F927F928F924C
S11301D09F92AF92BF92CF92DF92EF92FF920F93D2
S11301E01F93CF93DF93FB01DA013C012C0120E440
S11301F0420E511CE301C990D990E990F9903E0157
S113020000811181228133810C251D252E253F2556
S11302100083118322833383C22ED12CD2E1CD0EED
S1130220D11CCC0CDD1CCC0CDD1CBC016C0D7D1D6B
S1130230C32EDD24EE24FF2442E1C40ED11CCC0CD9
S1130240DD1CCC0CDD1C7C01EC0CFD1CEB0188805E
S11302509980AA80BB80E701C880D980EA80FB80AE
S1130260C80CD91CEA1CFB1C812E912CB4016E5EB7
S11302707F4F660F771F660F771F680F791FEB019B
S113028088809980AA80BB80C824D924EA24FB24CE
S11302901127222733270E5E1F4F000F111F000F57
S11302A0111F080F191FE801088119812A813B8158
S11302B0C00ED11EE21EF31E0D911D912D913C9195
S11302C01397C026D126E226F326CD92DD92ED9235
S11302D0FC92139700811181C082D182E282F38261
S11302E0012E000C220B330B0D931D932D933C9385
S11302F013976414750409F07DCF40815181008304
S1130300118322833383052E000C660B770B4D93E8
S11303105D936D937C931397EC01C05CDF4F088170
S113032019812A813B8140275127622773274D93E6
S11303305D936D937C931397DC01AC5BBF4F40815D
S11303405181628173818D919D910D90BC91A02DFD
S113035084279527A627B72780839183A283B38315
S1130360DF91CF911F910F91FF90EF90DF90CF908D
S1130370BF90AF909F908F907F906F905F904F90C1
S113038008954F925F926F927F928F929F92AF9255
S1130390BF92CF92DF92EF92FF920F931F93CF936E
S11303A0DF93FB01DA013C0128E4620E711C2C018D
S11303B048E0440E511CC080D180E280F380E30108
S11303C03A912A911A910A913E010C251D252E2558
S11303D03F250083118322833383C22ED12CD2E1A3
S11303E0CD0ED11CCC0CDD1CCC0CDD1CBC016C0D69
S11303F07D1DC32EDD24EE24FF2442E1C40ED11C56
S1130400CC0CDD1CCC0CDD1C7C01EC0CFD1CEB01CC
S113041088809980AA80BB80E701C880D980EA805F
S1130420FB80C80CD91CEA1CFB1C812E912CB40146
S11304306E5E7F4F660F771F660F771F680F791FF9
S1130440EB0188809980AA80BB80C824D924EA243F
S1130450FB241127222733270E5E1F4F000F111F85
S1130460000F111F080F191FE801088119812A8143
S11304703B81C00ED11EE21EF31E0D911D912D91E4
S11304803C911397C026D126E226F326CD92DD9225
S1130490ED92FC92139700811181C082D182E28295
S11304A0F382012E000C220B330B0D931D932D931D
S11304B03C9313976414750409F07DCF40815181F6
S11304C00083118322833383052E000C660B770B84
S11304D04D935D936D937C931397EC010C811D8177
S11304E02E813F8140275127622773274D935D93C7
S11304F06D937C93139740815181628173818881CC
S11305009981AA81BB8184279527A627B727808351
S11305109183A283B383DF91CF911F910F91FF90B9
S1130520EF90DF90CF90BF90AF909F908F907F908F
S11305306F905F904F9008952F923F924F925F92E9
S11305406F927F928F929F92AF92BF92CF92DF92DF
S1130550EF92FF920F931F93CF93DF93CDB7DEB744
S113056028970FB6F894DEBF0FBECDBF7C018B0178
S11305709A01A1E7BFE10E945F04281B390B36955D
S11305802795820F931F96958795929582958F70E4
S113059089279F70892769E3689F9001699F300DBF
S11305A01124CA01821B930BD701A85BBF4F20E023
S11305B034E0E5EAF0E001900D9221503040D9F7A3
S11305C028E4E5EAF4E0D70101900D922A95E1F7D9
S11305D00097C1F1F701170128E4220E311C20E035
S11305E030E0412C512C612C712CC12CD12C44E0D5
S11305F050E0842C952CA62CB72CBA2CA92C982C22
S11306008824B9016F5F7F4FD801A20FB31F2C91CB
S1130610822A8617970719F42C2D3D2D01C09B01C2
S11306204150510951F7408151816281738184267F
S11306309526A626B72681929192A192B1922E1662
S11306403F06A9F619821A821B821C821D821E8211
S11306501F82188667018701085B1F4FAE014B5F3D
S11306605F4FBE016F5F7F4FC7010E94E300898126
S11306709A81AB81BC81F60180839183A283B38389
S11306808D819E81AF81B88584839583A683B7834A
S1130690F8E0CF0ED11C0C151D0501F7570128EB0E
S11306A0A21A2BEFB20AAE014B5F5F4FBE016F5F20
S11306B07F4FC7010E94E30089819A81AB81BC818D
S11306C0F80180839183A283B3838D819E81AF815E
S11306D0B88584839583A683B783085F1F4F0A1563
S11306E01B0509F728960FB6F894DEBF0FBECDBFE1
S11306F0DF91CF911F910F91FF90EF90DF90CF90FA
S1130700BF90AF909F908F907F906F905F904F902D
S11307103F902F90089528E434E0FC01A901119240
S113072041505040E1F70895CF93DF93CDB7DEB742
S1130730C857D1090FB6F894DEBF0FBECDBF0E94D3
S1130740A0008AE0E6E6F0E0DE01119601900D9249
S11307508A95E1F7FE013B9688E2DF011D928A95B6
S1130760E9F760E080E00E94DC00CE0101960E947F
S11307708B0048E050E068E970E088E494E00E946F
S11307809C0285E696E6A5E6B4E48BAB9CABADABE8
S1130790BEAB82E795E6A4E6BEE68FAB98AFA9AF01
S11307A0BAAFAE01495C5F4FBE016D5C7F4F88E418
S11307B094E00E94E300AE01495C5F4FBE016D5CB2
S11307C07F4F88E494E00E94C10140E1BE01655C72
S11307D07F4F8BA99CA90E94A10540E1BE01645BE7
S11307E07F4F8FA998AD0E94A105BE01645B7F4F26
S11307F0CE01CB960E948F058E010B5A1F4FBE016E
S1130800655C7F4FC8010E949A05F80101900020A1
S1130810E9F731977F01E01AF10A1E141F04A4F5C9
S11308204E01B6E68B0E911CC12CD12C00E010E0D9
S11308305E01E7E7AE0EB11C0F2EF1EA6F2EF0E079
S11308407F2EF02DBF92AF927F926F9285E590E05C
S11308508C0F9D1F8C0D9D1D9F938F930E94C60529
S1130860D5018C91F40181934F010F5F1F4FF2E08A
S1130870CF0ED11C0F900F900F900F900F900F90F0
S1130880CE14DF04FCF202C000E010E0E6E6F0E083
S1130890EC0FFD1FE00FF11F108260E080E00E946A
S11308A0DC00CE018A599F4F0E948B0088E494E0BB
S11308B00E948B0388E494E00E940605FFCFA29F68
S11308C0B001B39FC001A39F700D811D1124911D20
S11308D0B29F700D811D1124911D08950F931F93D4
S11308E0CF93DF938230910510F482E090E0E091A1
S11308F0F004F091F10420E030E0A0E0B0E03097A3
S113090019F1408151810281138148175907C8F0B8
S11309108417950769F4109731F012960C93129787
S113092013961C9327C00093F0041093F10422C083
S11309302115310519F04217530718F49A01BD0126
S1130940EF01DF01F801DBCF21153105F9F0281B98
S1130950390B2430310580F48A819B81611571053E
S113096021F0FB019383828304C09093F10480936C
S1130970F004FE01329644C0FE01E20FF31F81939E
S1130980919322503109398328833AC02091EE048F
S11309903091EF04232B41F42091620030916300E5
S11309A03093EF042093EE042091600030916100B5
S11309B02115310541F42DB73EB7409164005091A3
S11309C06500241B350BE091EE04F091EF04E2176F
S11309D0F307A0F42E1B3F0B2817390778F0AC015E
S11309E04E5F5F4F2417350748F04E0F5F1F50933B
S11309F0EF044093EE048193919302C0E0E0F0E0B1
S1130A00CF01DF91CF911F910F910895CF93DF9381
S1130A10009709F481C0FC01329713821282A091DD
S1130A20F004B091F104109781F420813181820F98
S1130A30931F2091EE043091EF042817390751F5E4
S1130A40F093EF04E093EE0467C0ED0120E030E0A2
S1130A50CE17DF0740F44A815B819E0141155105A1
S1130A60F1F0EA01F5CFD383C28340815181840F31
S1130A70951FC817D90759F488819981840F951F48
S1130A800296918380838A819B819383828321153B
S1130A90310529F4F093F104E093F0043DC0E90139
S1130AA0FB83EA8349915991C40FD51FEC17FD07C5
S1130AB061F480819181840F951F0296E9019983E5
S1130AC08883828193819B838A83E0E0F0E012969D
S1130AD08D919C911397009719F0FD01DC01F7CFDC
S1130AE08D919C9111979D012E5F3F4F820F931F13
S1130AF02091EE043091EF042817390769F43097F8
S1130B0029F41092F1041092F00402C013821282AC
S1130B10B093EF04A093EE04DF91CF910895FB010D
S1130B20DC010D900020E9F7119701900D9200204F
S1130B30E1F70895FB01DC0101900D920020E1F73B
S1130B400895BB274A3031F4992322F4BDE29095ED
S1130B5081959F4F0C94AD05BB27FB015527AA2710
S1130B60880F991FAA1FA41710F0A41B8395505136
S1130B70B9F7A05DAA3308F0A95DA193009779F7AE
S1130B80B111B1931192CB010C94A008AEE0B0E086
S1130B90ECECF5E00C941A0985E08C838B899C8934
S1130BA09A838983AE01495E5F4F6D897E89CE0148
S1130BB001960E947B072E96E2E00C94360920FDF4
S1130BC009C0FC0123FD05C022FF02C073836283B8
S1130BD051834083089544FD17C046FD17C0AB01FF
S1130BE0BC01DA01FB01AA0FBB1FEE1FFF1F10940B
S1130BF0D1F74A0F5B1F6E1F7F1FCB01BA01660F2F
S1130C00771F881F991F09C033E001C034E0660FC5
S1130C10771F881F991F3150D1F7620F711D811DF5
S1130C20911D08950F931F93CF93DF938C01C801F7
S1130C300E94B008EC0197FD08C00E948C08892B23
S1130C40B1F7B801CE010E94EE08CE01DF91CF9139
S1130C501F910F9108958F929F92AF92BF92EF923E
S1130C60FF920F931F93CF93DF938C01D62F7A01BA
S1130C70B22E0E94B0089C0133272B32310531F08B
S1130C802D32310561F48B2D8068B82ED15011F4CA
S1130C9080E068C0C8010E94B00897FDF9CFCB2D51
S1130CA0CD7F2B2D207309F58033F9F4AA24AA945F
S1130CB0AD0E09F443C0C8010E94B00897FD3EC0C0
S1130CC09C012F7D33272835310549F4C264D25065
S1130CD0A9F1C8010E94B00897FF07C02FC0B6FE53
S1130CE002C0C26001C0C261DA2D812C912C540172
S1130CF020ED280F283080F0C4FF04C0B8010E9402
S1130D00EE0819C02A3040F0C6FFF8CF2F7D3FEE21
S1130D10320F363098F727504C2FC501B4010E948A
S1130D20EB054B015C01C260D15059F0C8010E942F
S1130D30B00897FFDDCFC1FD04C0AACF812C912C50
S1130D405401C7FF08C0B094A09490948094811C6F
S1130D50911CA11CB11C2C2FB501A401C7010E9438
S1130D60DF0581E0DF91CF911F910F91FF90EF900C
S1130D70BF90AF909F908F900895A0E2B0E0E3EC15
S1130D80F6E00C940D095C01962E7A01F9018E01AE
S1130D900F5F1F4F680180E2D8011D928A95E9F721
S1130DA0D50113968C9080E090E0612C712C30E09A
S1130DB061E070E083FC259183FE21918F01522E26
S1130DC0211103C080E090E092C02E3511F4009709
S1130DD051F1432F50E0481759073CF42D3559F190
S1130DE02D3219F4772009F103C0772009F46AC081
S1130DF0452D469546954695D601A40FB11D452D22
S1130E0047708B0102C0000F111F4A95E2F7A80139
S1130E105C91452B4C93651459F0561410F453947B
S1130E20E7CF5A94E5CF31E004C07724739401C02E
S1130E30712C0196BFCF772019F08E8180628E834A
S1130E40311103C08824839417C0F6019E012F5DDD
S1130E503F4F8081809581932E173F07D1F7F2CFC2
S1130E60E114F10429F0D7018C93F70131967F0145
S1130E709A94812C9920F9F0C5010E94B00897FD3D
S1130E8018C0FC01FF2723E0F595E7952A95E1F7C3
S1130E90EC0DFD1D208130E0AC014770552702C0E8
S1130EA0359527954A95E2F720FDDACFB5010E94E2
S1130EB0EE08811087CFE114F10411F0D7011C92E0
S1130EC0C80115C0422F469546954695D601A40FF4
S1130ED0B11D422F47708B0102C0000F111F4A95AC
S1130EE0E2F7A8015C91452B4C93622EA2CFA09609
S1130EF0EFE00C942909A0E0B0E0E1E8F7E00C94FD
S1130F000D096C01EB015A01FC0117821682512C68
S1130F10F601E380FE01E3FC8591E3FE8191182F45
S1130F20EF01882309F4EEC090E00E948C08892B1D
S1130F3021F0C6010E941206EBCF153241F4FE01E6
S1130F40E3FC1591E3FE1191EF01153281F4C60122
S1130F500E94B00897FDD4C0412F50E09C01332774
S1130F6024173507A9F2B6010E94EE08CBC01A3245
S1130F7039F4E3FC1591E3FE1191EF0101E001C0A6
S1130F8000E0F12C20ED210F2A3080F402606F2D57
S1130F9070E080E090E040E20E94EB05F62EFE0156
S1130FA0E3FC1591E3FE1191EF01ECCF01FF03C0C7
S1130FB0F11003C0A7C0FF24FA94183619F01C36A8
S1130FC051F010C0FE01E3FC1591E3FE1191EF0115
S1130FD0183641F408600460FE01E3FC1591E3FE59
S1130FE01191EF01112309F48DC0612F70E084E5A4
S1130FF090E00E949508892B09F484C000FD07C085
S1131000F50180809180C50102965C0102C0812CAB
S1131010912C1E3651F4F6014681578160E070E050
S1131020202FC4010E94DF0573CF1336A9F401FDFC
S113103002C0FF24F394C6010E94B00897FD60C06B
S11310408114910429F0F4018083C40101964C01B8
S1131050FA94F110F0CF50C01B3559F49E01A4014D
S11310606F2DC6010E94BD06EC01892B09F044C016
S11310703EC0C6010E94120697FD42C01F3661F1B0
S113108028F4143639F1193651F128C0133771F0A8
S1131090153701F123C08114910429F0F401608211
S11310A0C40101964C01FA94FF2071F0C6010E941C
S11310B0B0083C0197FD08C00E948C08892B59F3A5
S11310C0B601C3010E94EE0881149104A9F0F40151
S11310D0108212C0006203C0006101C00064202FAE
S11310E0A4016F2DC6010E942B06811105C0F601D3
S11310F08381807329F406C000FD0ACF539408CF7E
S1131100552019F0852D90E002C08FEF9FEFCDB7E9
S1131110DEB7EFE00C94290991110C940709803291
S113112019F089508550C8F70895FC0105900616FA
S113113021F00020D9F7C00108953197CF01089517
S1131140DC01FC01672F71917723E1F7329704C02A
S11311507C916D9370836291AE17BF07C8F30895B5
S1131160CF93DF93EC012B8120FF33C026FF0AC00D
S11311702F7B2B838E819F8101969F838E838A810F
S113118090E029C022FF0FC0E881F9818081082EF8
S1131190000C990B009719F420622B831AC0319626
S11311A0F983E8830EC0EA85FB85099597FF09C09A
S11311B02B81019611F080E201C080E1822B8B83A8
S11311C008C02E813F812F5F3F4F3F832E83992795
S11311D002C08FEF9FEFDF91CF910895FB01238130
S11311E020FF12C026FD10C08F3F3FEF930761F030
S11311F082832F7D20642383268137812150310906
S113120037832683992708958FEF9FEF08959927B1
S1131210882708952F923F924F925F926F927F9208
S11312208F929F92AF92BF92CF92DF92EF92FF92F2
S11312300F931F93CF93DF93CDB7DEB7CA1BDB0B9E
S11312400FB6F894DEBF0FBECDBF09942A88398843
S113125048885F846E847D848C849B84AA84B9844A
S1131260C884DF80EE80FD800C811B81AA81B98156
S1131270CE0FD11D0FB6F894DEBF0FBECDBFED016A
S10912800895F894FFCF6D
S11312860000F204200044656673656E64657200AE
S11312960000000000000000000000000000000044
S11312A60000000000000000000000000000000034
S11312B6000000000000000050617373776F7264D1
S11312C60025327800A60B31D1ACB5DF98DB72FD70
S11312D62FB7DF1AD0EDAFE1B8967E266A45907C2B
S11312E6BA997F2CF14799A124F76C91B3E2F201E4
S11312F60816FC8E85D8206963694E5771A3FE587B
S1131306A47E3D93F48F74950D58B68E7258CD8B8A
S113131671EE4A15821DA4547BB5595AC239D5308B
S11313269C1360F22A23B0D1C5F085602818794150
S1131336CAEF38DBB8B0DC798E0E183A608B0E9E95
S11313466C3E8A1EB0C17715D7274B31BDDA2FAF55
S113135678605C6055F32555E694AB55AA629848C7
S1131366574014E8636A39CA55B610AB2A345CCCC4
S1131376B4CEE84111AF8654A193E9727C1114EE00
S1131386B32ABC6F635DC5A92BF6311874163E5C8F
S1131396CE1E93879B33BAD6AF5CCF246C8153326F
S11313A67A7786952898488F3BAFB94B6B1BE8BF75
S11313B6C493212866CC09D86191A921FB60AC7C31
S11313C6483280EC5D5D5D84EFB17585E9022326C4
S11313D6DC881B65EB813E8923C5AC96D3F36F6D20
S11313E60F3942F48382440B2E042084A44AF0C8A5
S11313F6695E9B1F9E4268C6219A6CE9F6619C0C45
S113140667F088D3ABD2A0516A682F54D828A70FA7
S113141696A33351AB6C0BEF6EE43B7A1350F03B5F
S1131426BA982AFB7E1D65F1A17601AF393E59CAE9
S113143666880E43821986EE8CB49F6F45C3A584D5
S11314467DBE5E8B3BD8756FE07320C1859F441AC1
S113145640A66AC15662AAD34E06773F3672DFFEAD
S11314661B3D029B4224D7D03748120AD0D3EA0F39
S1131476DB9BC0F149C97253077B1B9980D879D489
S113148625F7DEE8F61A50FEE33B4C79B6BDE06C70
S113149697BA06C004B64FA9C1C4609F40C29E5CF9
S11314A65E63246A19AF6FFB68B5536C3EEBB239C1
S11314B6136FEC523B1F51FC6D2C95309B444581B8
S11314C6CC09BD5EAF04D0E3BEFD4A33DE07280F68
S11314D666B34B2E1957A8CBC00F74C845395F0B9A
S11314E6D2DBFBD3B9BDC079550A32601AC600A156
S11314F6D679722C40FE259F67CCA31FFBF8E9A57D
S11315068EF82232DBDF16753C156B61FDC81E5062
S11315162FAB5205ADFAB53D32608723FD487B31CA
S11315265382DF003EBB575C9EA08C6FCA2E568743
S11315361ADB6917DFF6A842D5C3FF7E28C63267D1
S1131546AC73554F8CB0275B69C858CABB5DA3FF03
S1131556E1A011F0B8983DFA10B88321FD6CB5FCF2
S11315664A5BD3D12D79E4539A6545F8B6BC498EC6
S1131576D29097FB4BDAF2DDE1337ECBA44113FB29
S113158662E8C6E4CEDACA20EF014C7736FE9E7EC8
S1131596D0B41FF12B4DDADB95989190AE718EADD8
S11315A6EAA0D5936BD0D18ED0E025C7AF2F5B3C94
S11315B68EB794758EFBE2F68F642B12F212B888FE
S11315C6881CF00D90A05EAD4F1CC38F6891F1CFBF
S11315D6D1ADC1A8B318222F2F77170EBEFE2D75D5
S11315E6EAA11F028B0FCCA0E5E8746FB5D6F3AC65
S11315F61899E289CEE04FA8B4B7E013FD813BC445
S11316067CD9A8ADD266A25F16057795801473CCF3
S11316169377141A216520ADE686FAB577F5425418
S1131626C7CF359DFB0CAFCDEBA0893E7BD31B41C9
S1131636D6497E1EAE2D0E25005EB37120BB006812
S113164622AFE0B8579B3664241EB909F01D916396
S113165655AAA6DF598943C1787F535AD9A25B7D1F
S113166620C5B9E50276032683A9CF95626819C811
S113167611414A734ECA2D47B34AA9147B520051ED
S11316861B1529539A3F570FD6E4C69BBC76A46014
S11316962B0074E681B56FBA081FE91B576BEC96ED
S11316A6F215D90D2A216563B6B6F9B9E72E0534C4
S11316B6FF645685C55D2DB053A18F9FA99947BA7E
S11316C6086A07856E886A3F24D308A3852E8A197B
S11316D61344737003223809A4D0319F2998FA2E33
S11316E608896C4EECE62128457713D038CF66542A
S11316F6BE6C0CE934B729ACC0DD507CC9B5D584C1
S11117063F170947B5D9D516921BFB79890008
S9030000FC
