:100000000C942A000C9434000C9434000C943400AA
:100010000C9434000C9434000C9434000C94340090
:100020000C9434000C9434000C9434000C94340080
:100030000C9434000C9434000C9434000C94340070
:100040000C9434000C9434000C9434000C94340060
:100050000C94340011241FBECFE5D8E0DEBFCDBF25
:100060000E9436000C944D000C9400008FEF87BB6B
:1000700088BB2FEF33ED40E3215030404040E1F7A3
:1000800000C0000018BA2FEF33ED40E3215030409C
:0E0090004040E1F700C00000EBCFF894FFCF36
:00000001FF
