:100000000C94BF000C94D1000C94D1000C94F50119
:100010000C94D1000C94D1000C94D1000C94D1001C
:100020000C94D1000C94D1000C94D1000C94D1000C
:100030000C94D1000C94D1000C94D1000C94D100FC
:100040000C94D1000C94D1000C94D1000C94D100EC
:100050000C94D1000D090E60157116311A7A1B73BC
:100060001C611D771E3221632278236424652534A8
:10007000263329202A762B662C742D722E35316E6C
:10008000326233683467357936363A6D3B6A3C758F
:100090003D373E38412C426B4369446F4530463909
:1000A000492E4E2D4B6C4C3B4D705227545B553DA9
:1000B0005A0D5B5D5D5D613C660869316B346C3780
:1000C0007030712E7232733574367538761B792B19
:1000D0007A337B2D7C2A7D3900000D090E7E155167
:1000E00016211A5A1B531C411D571E4021432258EA
:1000F000234424452524262329202A562B462C54E4
:100100002D522E25314E3242334834473559365E12
:10011000394C3A4D3B4A3C553D263E2A413C424BE8
:100120004349444F45294628493E4E5F4B4C4C3A83
:100130004D504A3F5222547B552B5A0D5B7D5D7CBE
:10014000613E660869316B346C377030712E7232E3
:10015000733574367538792B7A337B2D7C2A7D394B
:1001600000006CF069F171F170F37AF47DF575F6C9
:1001700072F76BF874F94AFA14FB11FC00001124B1
:100180001FBECFE5D8E0DEBFCDBF10E0A0E6B0E0F7
:1001900001C01D92AC37B107E1F70E94D3000C9467
:1001A00069020C94000087EA91E60197F1F700C01C
:1001B00000000E94FA007894FFCF90916000903187
:1001C000C0F4E0917600F09177008193F09377008E
:1001D000E0937600809160008F5F8093600080E004
:1001E000E337F80730F083E690E090937700809350
:1001F00076000895109260000E94EB0183E690E083
:1002000090937700809376009093620080936100D2
:1002100010926000089590917500992309F0AFC085
:100220008935A9F08A3518F48231A9F40CC0803ED2
:1002300031F0803F81F481E080937500089581E082
:1002400080937300089581E080937400089581E0A5
:1002500080937400089590917300992309F42EC03F
:1002600062E671E09B01FB0194918917A1F09491E2
:100270009923A1F090E09F5F492F50E0440F551F54
:100280009B01240F351FF901A4918A1749F0A4910D
:10029000AA2389F705C040E050E002C040E050E0EA
:1002A000F9012491821709F078C04F5F5F4F640F06
:1002B000751FFB0184910E94DD00089590917400E8
:1002C000992379F06AED70E09B01FB019491891705
:1002D00009F446C09491992309F031C040E050E000
:1002E00041C064E570E09B01FB0194918917A1F086
:1002F00094919923A1F090E09F5F492F50E0440F23
:10030000551F9B01240F351FF901A4918A1749F04D
:10031000A491AA2389F705C040E050E002C040E064
:1003200050E0F9012491821709F037C04F5F5F4F09
:10033000640F751FFB0184910E94DD00089590E019
:100340009F5F492F50E0440F551F9B01240F351F1D
:10035000F901A4918A1731F0A491AA2389F702C068
:1003600040E050E0F90124918217B9F44F5F5F4FEC
:10037000640F751FFB0184910E94DD0008951092A7
:10038000750010927300823119F0893531F403C081
:100390001092740008951092740008958091600086
:1003A0008823E1F3E0916100F09162008191F09384
:1003B0006200E093610090E0E337F90730F023E654
:1003C00030E0309362002093610090916000915082
:1003D00090936000089514BE8BE080937900109292
:1003E00078008BB780628BBF08951F920F920FB673
:1003F0000F9211242F933F934F935F936F937F93AB
:100400008F939F93AF93BF93EF93FF938091780067
:10041000882319F580917900833070F080917900FC
:100420008B3050F480917B00869580937B00B19B4C
:1004300003C0806880937B00809179008150809315
:10044000790080917900882399F580917B000E9442
:100450000B018BE0809379002BC08091790088306C
:10046000A8F480917A002091790090E002C09595DF
:1004700087952A95E2F780FF02C0C19A01C0C19812
:10048000809179008F5F8093790012C0809179000C
:10049000883039F4C198809179008F5F809379001A
:1004A00007C0B998C198109278008BE080937900CA
:1004B000FF91EF91BF91AF919F918F917F916F913C
:1004C0005F914F913F912F910F900FBE0F901F9012
:0604D0001895F894FFCF1F
:00000001FF
